:040000000AEFFEF015
:020000040001F9
:10FC0800000E956E1200000E836E12000001E5EFE3
:10FC1800FEF0000E136E140E126E12C00DF013C01B
:10FC28000EF079ECFEF012C00CF013C00DF09DEC54
:10FC3800FEF012C00CF013C00DF055ECFEF01200EF
:10FC4800000E136E0A0E126E12C00DF013C00EF0E5
:10FC580079ECFEF012C00CF013C00DF09DECFEF034
:10FC680012C00CF013C00DF0C1ECFEF01200000E33
:10FC7800056E000E046E0AD0090E036E1C0EE82EE7
:10FC8800FED7032EFCD700D0044A052A0150045C95
:10FC98000550800A036E0250800A0358D8B012003B
:10FCA800EBD70C500D10D8A404D0000E0D6E0A0E20
:10FCB8000C6E000E106E000E0F6E0CD0000E076E4C
:10FCC800070E066E000E096E010E086E20ECFFF09E
:10FCD8000F4A102A0C500F5C1050800A0E6E0D50FF
:10FCE800800A0E58D8B01200E9D70D500E10D8A4CB
:10FCF80004D0000E0E6E0A0E0D6E000E116E000E70
:10FD0800106E0CD0000E076E0A0E066E000E096EFD
:10FD1800640E086E89ECFFF0104A112A0D50105C31
:10FD28001150800A0F6E0E50800A0F58D8B012007A
:10FD3800E9D70C500D10D8A404D0000E0D6E0A0E91
:10FD48000C6E000E106E000E0F6E0CD0000E076EBB
:10FD58000A0E066E000E096E000E086E20ECFFF00B
:10FD68000F4A102A0C500F5C1050800A0E6E0D506E
:10FD7800800A0E58D8B01200E9D70C500D10D8A43C
:10FD880004D0000E0D6E0A0E0C6E000E106E000EE2
:10FD98000F6E0CD0000E076E020E066E000E096E76
:10FDA800010E086E20ECFFF00F4A102A0C500F5C71
:10FDB8001050800A0E6E0D50800A0E58D8B01200EE
:10FDC800E9D704ECFEF0000E076E050E066E000E75
:10FDD800096E000E086E20ECFFF0000E0E6E640E29
:10FDE8000D6E79ECFEF0000E0D6E640E0C6EC1EC1B
:10FDF800FEF0000E076E320E066E000E096E640EDF
:10FE0800086E89ECFFF0000E0E6E050E0D6E79EC93
:10FE1800FEF0000E0D6E050E0C6E9DECFEF0000E51
:10FE28000D6E0A0E0C6E55ECFEF00DECFEF024EC97
:10FE3800FEF007ECFEF0C7D7000E0B6E000E0A6E40
:10FE48000BBE06D00B5060E1C80E0A5CD8B0120099
:10FE580008500910D8A429D0030E836E06C001F0FB
:10FE680007C002F03BECFEF0060E836E06C001F000
:10FE780007C002F03BECFEF00C0E836E06C001F0EA
:10FE880007C002F03BECFEF0090E836E06C001F0DD
:10FE980007C002F03BECFEF0030E836E06C001F0D3
:10FEA80007C002F03BECFEF02CD008040910D8A4DF
:10FEB80028D0090E836E06C001F007C002F03BECA3
:10FEC800FEF00C0E836E06C001F007C002F03BEC9A
:10FED800FEF0060E836E06C001F007C002F03BEC90
:10FEE800FEF0030E836E06C001F007C002F03BEC83
:10FEF800FEF0090E836E06C001F007C002F03BEC6D
:10FF0800FEF00A4A0B2A9CD71200000E0C6E000E57
:10FF18000B6E2AD0030E836E06C001F007C002F0F4
:10FF28003BECFEF0060E836E06C001F007C002F03F
:10FF38003BECFEF00C0E836E06C001F007C002F029
:10FF48003BECFEF0090E836E06C001F007C002F01C
:10FF58003BECFEF0030E836E06C001F007C002F012
:10FF68003BECFEF00B4A0C2A08500B5C0C50800A44
:10FF78000A6E0950800A0A58D8A0CCD7000E0C6E19
:10FF8800000E0B6E2AD0090E836E06C001F007C062
:10FF980002F03BECFEF00C0E836E06C001F007C0C9
:10FFA80002F03BECFEF0060E836E06C001F007C0BF
:10FFB80002F03BECFEF0030E836E06C001F007C0B2
:10FFC80002F03BECFEF0090E836E06C001F007C09C
:10FFD80002F03BECFEF00B4A0C2A08500B5C0C506C
:10FFE800800A0A6E0950800A0A58D8B01200CBD786
:06FFF800A0F4C4FFF8F7BD
:00000001FF
