:040000008DEFFEF092
:020000040001F9
:10FD1400000E956E1200000194EFFEF0000E836E4B
:10FD2400956812008AECFEF09BECFEF090ECFEF07D
:10FD3400FBD7000E136E050E126E12C00DF013C029
:10FD44000EF0E8ECFEF012C00CF013C00DF004EC61
:10FD5400FFF012C00CF013C00DF0CCECFEF012005A
:10FD6400000E056E000E046E0AD0090E036E1C0E02
:10FD7400E82EFED7032EFCD700D0044A052A0150F2
:10FD8400045C0550800A036E0250800A0358D8B000
:10FD94001200EBD7000E106E000E0F6E0CD0000E8A
:10FDA400076E050E066E000E096E010E086E20EC3D
:10FDB400FFF00F4A102A0C500F5C1050800A0E6E90
:10FDC4000D50800A0E58D8B01200E9D7000E116EFB
:10FDD400000E106E0CD0000E076E050E066E000E9F
:10FDE400096E640E086E89ECFFF0104A112A0D505A
:10FDF400105C1150800A0F6E0E50800A0F58D8B054
:10FE04001200E9D7000E106E000E0F6E0CD0000E1B
:10FE1400076E050E066E000E096E000E086E20ECCD
:10FE2400FFF00F4A102A0C500F5C1050800A0E6E1F
:10FE34000D50800A0E58D8B01200E9D7000E0B6E90
:10FE4400000E0A6E0BBE06D00B5060E1C80E0A5CB1
:10FE5400D8B0120008500910D8A429D0030E836E1C
:10FE640006C001F007C002F0B2ECFEF0060E836E8D
:10FE740006C001F007C002F0B2ECFEF00C0E836E77
:10FE840006C001F007C002F0B2ECFEF0090E836E6A
:10FE940006C001F007C002F0B2ECFEF0030E836E60
:10FEA40006C001F007C002F0B2ECFEF02CD008044A
:10FEB4000910D8A428D0090E836E06C001F007C02B
:10FEC40002F0B2ECFEF00C0E836E06C001F007C027
:10FED40002F0B2ECFEF0060E836E06C001F007C01D
:10FEE40002F0B2ECFEF0030E836E06C001F007C010
:10FEF40002F0B2ECFEF0090E836E06C001F007C0FA
:10FF040002F0B2ECFEF00A4A0B2A9CD71200000E53
:10FF14000C6E000E0B6E2AD0030E836E06C001F029
:10FF240007C002F0B2ECFEF0060E836E06C001F0CC
:10FF340007C002F0B2ECFEF00C0E836E06C001F0B6
:10FF440007C002F0B2ECFEF0090E836E06C001F0A9
:10FF540007C002F0B2ECFEF0030E836E06C001F09F
:10FF640007C002F0B2ECFEF00B4A0C2A08500B5CFE
:10FF74000C50800A0A6E0950800A0A58D8A0CCD7BF
:10FF8400000E0C6E000E0B6E2AD0090E836E06C096
:10FF940001F007C002F0B2ECFEF00C0E836E06C056
:10FFA40001F007C002F0B2ECFEF0060E836E06C04C
:10FFB40001F007C002F0B2ECFEF0030E836E06C03F
:10FFC40001F007C002F0B2ECFEF0090E836E06C029
:10FFD40001F007C002F0B2ECFEF00B4A0C2A085004
:10FFE4000B5C0C50800A0A6E0950800A0A58D8B07B
:04FFF4001200CBD755
:06FFF800A0F4C4FFF8F7BD
:00000001FF
