:040000009BEF08F07A
:1010000000616E74695F636C6F636B776973650011
:0110100000DF
:10101200000E0B6E000E0A6E0BBE06D00B5060E186
:10102200640E0A5CD8B0120008500910D8A429D066
:10103200030E836E06C001F007C002F072EC08F0E6
:10104200060E836E06C001F007C002F072EC08F0D3
:101052000C0E836E06C001F007C002F072EC08F0BD
:10106200090E836E06C001F007C002F072EC08F0B0
:10107200030E836E06C001F007C002F072EC08F0A6
:101082002CD008040910D8A428D0090E836E06C0FB
:1010920001F007C002F072EC08F00C0E836E06C07D
:1010A20001F007C002F072EC08F0060E836E06C073
:1010B20001F007C002F072EC08F0030E836E06C066
:1010C20001F007C002F072EC08F0090E836E06C050
:1010D20001F007C002F072EC08F00A4A0B2A9CD712
:1010E2001200000E056E000E046E0AD0090E036E89
:1010F2001C0EE82EFED7032EFCD700D0044A052A88
:101102000150045C0550800A036E0250800A0358A5
:10111200D8B01200EBD7A6EC08F0000E076E050E51
:10112200066E000E096E000E086E09EC08F0A2ECC5
:1011320008F0F3D7000EF86E100EF76E00018CEF78
:1011420008F0000E836E95681200000E956E120074
:020000040001F9
:06FFF800A0F4C4FFF8F7BD
:00000001FF
