:0400000053EF09F0C1
:1010000000616E74695F636C6F636B776973650011
:0110100000DF
:10101200000E0B6E000E0A6E0BBE06D00B5065E181
:10102200FA0E0A5CD8B01200010E08182CE1100E5C
:101032000918D8A428D0030E836E06C001F007C099
:1010420002F03EEC09F0060E836E06C001F007C006
:1010520002F03EEC09F00C0E836E06C001F007C0F0
:1010620002F03EEC09F0090E836E06C001F007C0E3
:1010720002F03EEC09F0030E836E06C001F007C0D9
:1010820002F03EEC09F0060E08182CE1100E0918C9
:10109200D8A428D0090E836E06C001F007C002F062
:1010A2003EEC09F00C0E836E06C001F007C002F0A0
:1010B2003EEC09F0060E836E06C001F007C002F096
:1010C2003EEC09F0030E836E06C001F007C002F089
:1010D2003EEC09F0090E836E06C001F007C002F073
:1010E2003EEC09F00A4A0B2A97D71200030E836ED0
:1010F20006C001F007C002F03EEC09F0060E836E56
:1011020006C001F007C002F03EEC09F00C0E836E3F
:1011120006C001F007C002F03EEC09F0090E836E32
:1011220006C001F007C002F03EEC09F0030E836E28
:1011320006C001F007C002F03EEC09F0090E836E12
:1011420006C001F007C002F03EEC09F00C0E836EFF
:1011520006C001F007C002F03EEC09F0060E836EF5
:1011620006C001F007C002F03EEC09F0030E836EE8
:1011720006C001F007C002F03EEC09F0090E836ED2
:1011820006C001F007C002F03EEC09F012005AEC72
:1011920009F0000E076E050E066E060E086E100EA2
:1011A200096E09EC08F0000E076E050E066E77EC6C
:1011B20008F0000E096E050E086E26EC09F0000E0E
:1011C2000D6E050E0C6EEEEC08F0000E0D6E0A0EA2
:1011D2000C6E0AEC09F000EF00F0000E106E000E2B
:1011E2000F6E0CD0000E076E050E066E060E086E10
:1011F200100E096E09EC08F00F4A102A0C500F5C11
:101202001050800A0E6E0D50800A0E58D8B012008F
:10121200E9D7000E106E000E0F6E0CD0000E076E96
:101222000A0E066E010E086E100E096E09EC08F029
:101232000F4A102A0C500F5C1050800A0E6E0D508F
:10124200800A0E58D8B01200E9D7000E0C6E000EBC
:101252000B6E08D0000E076E320E066E77EC08F0A9
:101262000B4A0C2A08500B5C0C50800A0A6E09507B
:10127200800A0A58D8B01200EDD7000E056E000E93
:10128200046E05D000D000D000D0044A052A0150D7
:10129200045C0550800A036E0250800A0358D8B0DD
:1012A2001200F0D7000EF86E100EF76E0001C8EFB4
:0812B20008F0000E956E120019
:020000040001F9
:06FFF800A0F4C4FFF8F7BD
:00000001FF
